:030000000201CE2C
:0C01CE00787FE4F6D8FD7581070201334C
:100003003C4242424242423C10181410101010105D
:100013007E02027E4040407E3E02023E02023E00DD
:1000230008182848FE0808083C20203C04043C002B
:100033003C20203C24243C003E22040808080808F5
:10004300003E22223E22223E3E22223E0202023E67
:100053000814223E222222223C22223E22223C005B
:100063003C40404040403C007C42424242427C0093
:100073007C40407C4040407C7C40407C4040404051
:100083003C4040404044443C4444447C4444444415
:100093007C1010101010107C3C0808080808483029
:1000A3000024283020302824404040404040407CF9
:1000B30081C3A59981818181004262524A464200EF
:1000C3003C4242424242423C3C2222223C202020EB
:1000D3001C2222222226221D3C2222223C242221CF
:1000E300001E20203E02023C003E080808080808C3
:1000F300424242424242221C42424242424224186B
:1001030000494949492A1C0000412214081422418C
:100113004122140808080808007F02040810207F01
:10012300087F49497F080808FEBA92BA929ABAFE34
:10018E00E4FDFCC3ED9FEC9E5015E4FBFA0BBB00A7
:0F019E00010AEB64704A70F50DBD00010C80E49E
:0101AD00222F
:1001AE00C2A17E08C2A2EF3392A0EF25E0FFD2A239
:0201BE00DEF26F
:0101C000221C
:0D01C100C2A11201AEAF051201AED2A12203
:10016C00E4FD7F091201C17D037F0A1201C17D07E5
:10017C007F0B1201C17D017F0C1201C11D7F0F028B
:02018C0001C1AF
:1001330012016CE4F97C0175F008E9A42402F5824C
:10014300E5F03400F583E5822CF582E43583F5830D
:10015300E493FDAF041201C10CBC09DB7FE87E030D
:0901630012018E09B926CE80CAF2
:00000001FF
