:030000000200CF2C
:0C00CF00787FE4F6D8FD75810E02003D3C
:1000BF0010FE9292FE101010FEBA92BA929ABAFEE9
:10003D007F327E00120072120003750801E50890F0
:10004D0000C693FDE5089000BE93F50DAB08AF0813
:10005D001200920508E508C3940940E17FE87E038C
:05006D0012007280D5B5
:10000300E4F50D7B09FD7F09120092750D037B0A50
:100013007D037F0A120092750D077B0B7D077F0B13
:10002300120092750D017B0C7D017F0C120092E48E
:0A003300F50D7B0FFD7F0F02009218
:040092008D0B8B0C3B
:10009600C2A11200AEAF0B1200AEAF0C1200AEAF93
:0700A6000D1200AE00D2A113
:0100AD002230
:1000AE007E08C2A2EF3392A0EF25E0FFD2A2DEF2CD
:0100BE00221F
:10007200E4FDFCC3ED9FEC9E5015E4FBFA0BBB00C4
:0F008200010AEB64704A70F50DBD00010C80E4BB
:01009100224C
:00000001FF
