:10088700FE0C10FF1010103010FE92FE92FE911E0B
:10089700525252525252928210FE107E10FF101086
:1008A700FE0C10FF1010103010FE92FE92FE911EEB
:1008B700525252525252928210FE107E10FF101066
:1008C700FE0C10FF1010103010FE92FE92FE911ECB
:1008D700525252525252928210FE107E10FF101046
:1008E700FE0C10FF1010103010FE92FE92FE911EAB
:1008F700525252525252928210FE107E10FF101026
:100907007F327E0012095F120800750D01C2A1E453
:10091700F50EAF0D12099BC3740F950E75F008A461
:100927002486F582E43408F583E582250DF582E413
:100937003583F583E493FF12099B00050EE50EC38B
:10094700941040CED2A1050DE50DC3940940BE7F9A
:08095700E87E0312095F80B283
:10080000C2A1E4F50F7F0912099BE4FF12099B05C1
:100810000FE50FC3941040EDD2A100C2A1E4F50F83
:100820007F0A12099B7F0312099B050FE50FC394F2
:100830001040EDD2A100C2A1E4F50F7F0B12099B7D
:100840007F0712099B050FE50FC3941040EDD2A15D
:1008500000C2A1E4F50F7F0C12099B7F0112099BD6
:10086000050FE50FC3941040EDD2A1C2A1E4F50F2E
:100870007F0F12099BE4FF12099B050FE50FC3943C
:060880001040EDD2A100C2
:01088600224F
:04097F008D098B0A49
:10098300C2A112099BAF0912099BAF0A12099BAFBF
:070993000B12099B00D2A129
:01099A00223A
:10099B007E08C2A2EF3392A0EF25E0FFD2A2DEF2D7
:0109AB002229
:10095F00E4FDFCC3ED9FEC9E5015E4FBFA0BBB00CE
:0F096F00010AEB64704A70F50DBD00010C80E4C5
:01097E002256
:030000000209AC46
:0C09AC00787FE4F6D8FD75810F02090782
:00000001FF
